:020000040000FA
:10000000B0160020C5010000CD010000CF010000A6
:1000100000000000000000000000000000000000E0
:10002000000000000000000000000000D1010000FE
:100030000000000000000000D3010000AB0400003D
:10004000A50B00002F08000055080000E30A00007F
:10005000ED0A0000F70A0000010B00009D040000FB
:10006000D7010000D7010000D7010000D701000030
:10007000D7010000D7010000D7010000D701000020
:10008000D7010000D7010000D7010000D701000010
:10009000D7010000D7010000D7010000D701000000
:1000A000D7010000D7010000D7010000D7010000F0
:1000B000D7010000D7010000D7010000D7010000E0
:1000C00000F002F800F053F80CA030C808382418EB
:1000D0002D18A246671EAB4654465D46AC4201D180
:1000E00000F045F87E460F3E0FCCB646012633425F
:1000F00000D0FB1AA246AB4633431847BC6600004B
:10010000DC6600000023002400250026103A01D3FD
:1001100078C1FBD8520700D330C100D50B607047BF
:1001200010B5662902D106F051F810BD692902D137
:1001300003F0ECFE10BD782902D103F01DFF10BDC5
:10014000732902D105F016FA10BD002010BD1FB5AD
:100150000098019904F045FF04F026FF04000020F8
:10016000002105F017FFE0601FBD10B510BD05F0C0
:1001700030FE1146FFF7EBFF00F06EF805F048FE89
:1001800003B4FFF7F2FF03BC05F078FE70B5054637
:100190000C46164602E00FCC0FC5103E102EFAD2C8
:1001A000082E02D303CC03C5083E042E07D301CC8E
:1001B00001C5361F03E021782970641C6D1C761E72
:1001C000F9D270BD0748804707480047FEE7FEE7C1
:1001D000FEE7FEE7FEE7FEE704480549054A064B51
:1001E0007047000005020000C1000000B0060020BA
:1001F000B0160020B0120020B012002004490348BD
:1002000008607047024901480860704780F0FA02B0
:100210000000002010B50146014801F02BFD10BD83
:100220000000104010B5044602E0FFF7F3FF641C25
:1002300020780028F9D110BD10B5064C6268002A5C
:1002400000D0904720680028FDD110BD01494860CA
:100250007047704704000020D8B003246407254687
:10026000944F95A003C810910F9095A003C80E91CC
:100270000D902022944905A8FFF788FF00F068FC44
:1002800092497817086000F079FA002802D090A00F
:10029000FFF7C8FF99480121016002210160042194
:1002A000016000F0B2FA00F078FC944980208031BF
:1002B0000860864980390968014201D0012600E0C2
:1002C0000026304600F024FB002802D08CA0FFF767
:1002D000A9FF00F036FB3868179017980002070F47
:1002E00017980004020D17980007000F1690924807
:1002F00010181BD002281ED090A111A803F092FD67
:10030000009711AA90A118A8169B03F08BFD97A047
:10031000FFF788FF18A8FFF785FF9EA0FFF782FF71
:10032000002E0DD0A5A0FFF77DFF0CE0ACA111A819
:1003300003F04EFEE4E7ADA111A803F049FEDFE7AC
:10034000ADA0FFF76FFFB4A0FFF76CFFC0A0FFF7F1
:1003500069FFC3A0FFF766FF84A0FFF763FF0020DB
:1003600005AA8100515802C5401C0828F9D3002174
:10037000002008CC85005559AB4200D0491C401CD8
:100380000828F6D3002903D0C4A0FFF74BFF02E0F2
:10039000CBA0FFF747FF00F0D9FA002208210FA8F1
:1003A00000F0F8FA002208210DA800F02AFB002135
:1003B00000200FAA0DAB1C5C155CAC4200D0491CA0
:1003C000401C0828F7D3002903D0C3A0FFF72AFF59
:1003D00002E0CBA0FFF726FFD04901200191009059
:1003E000CF4B4022CF49D04801F049FDCE48CF4AFB
:1003F000CF49983002F066FECB48983002F085FE77
:10040000CD49CC48486107200861CC4C20780128B0
:10041000FBD1C54801F086FD21464860C24801F085
:10042000B1FD2146886004F037FC0446C3480D4600
:10043000406804F031FC02460B46C1A118A80195A2
:10044000009403F0EFFC18A8FFF7ECFEB6489830D4
:1004500002F0CAFFB4489830806F04F01DFC0446D7
:10046000B1480D469830406F04F016FC0646AE4881
:100470000F469830006F04F00FFC02460B46B8A1FF
:1004800018A8019700960395029403F0CBFC18A8D6
:10049000FFF7C8FEA94900200870B6E70B49802085
:1004A00008601649803108607047A449012008702F
:1004B0007047000000ED00E00123456789ABCDEFF8
:1004C000FFFFFFFFFFFFFFFFDC61000080E200E0B5
:1004D0004572726F72202D2058696C696E782047C2
:1004E00050494F206661696C656420746F20696EA5
:1004F000697469616C6973650A00000000E100E0DD
:100500004572726F72202D2058696C696E78205385
:10051000504920636F6E74726F6C6C6572732066E5
:1005200061696C656420746F20696E697469616CBF
:100530006973650A00000000DFF3FFFF556E6B6E04
:100540006F776E202578000041726D202573205250
:1005500065766973696F6E202569205661726961DD
:100560006E742025690D0A0A000000002A2A2A2A32
:100570002A2A2A2A2A2A2A2A2A2A2A2A2A2A2A2ADB
:100580002A2A2A2A2A2A2A2A2A2A2A2A2A2A2A2ACB
:100590000D0A00004578616D706C652064657369B3
:1005A000676E20666F7220446967696C656E74209F
:1005B000533720626F6172640D0A00000A5632439D
:1005C0002D4441504C696E6B20626F617264206EE5
:1005D0006F742064657465637465640D0A000000BF
:1005E000436F727465782D4D31000000436F727453
:1005F00065782D4D330000000A5632432D4441509A
:100600004C696E6B20626F6172642064657465630F
:100610007465640D0A00000055736520444950203C
:10062000737769746368657320616E642070757395
:100630006820627574746F6E7320746F0D0A636F37
:100640006E74726F6C204C4544530D0A000000001C
:1006500056657273696F6E20312E310D0A000000ED
:100660004C61622054776F2041646975766F2C204D
:1006700058696C696E782C2041524D2C2044696772
:10068000696C656E742C204861636B737465722E9F
:10069000494F204C41420D0A000000004552524F84
:1006A00052202D204272616D207265616462616327
:1006B0006B20636F727275707465642E0D0A000092
:1006C0004272616D20726561646261636B20636F69
:1006D00072726563740D0A004552524F52202D20EC
:1006E00042617365205350492072656164626163A1
:1006F0006B20636F727275707465642E0D0A000052
:100700004261736520535049207265616462616380
:100710006B20636F72726563740D0A0000E1F5056A
:100720000000A0440000A14430010020000004406B
:1007300000000540BF9EE60500E000E0100000203C
:1007400054656D702069732025662048756D696455
:100750006974792069732025660D0A0A000000007B
:10076000582069732025662059206973202566204A
:100770005A2069732025660D0A0A000010B5002171
:10078000614800F021FC002801D0012010BD5E4826
:100790000121103000F018FC002801D0012010BD0C
:1007A00059480221203000F00FFC002801D0012020
:1007B00010BD0F22D2430121534800F01CFA00243F
:1007C000E44322460221504800F015FA4E48220325
:1007D0000121103000F00FFA4B4822460221103060
:1007E00000F009FA484800220121203000F003FA05
:1007F000454800220121103000F086FA0022012134
:10080000414800F081FA002010BD10B53E48022199
:10081000103000F0F7FA02213B4800F0F3FA3A48B2
:10082000103000F0A3FA384800F0A0FA10BD08B567
:100830000221354800F03AFA009001213248009A2E
:1008400000F062FA0321304800F02AFB2F49022011
:10085000086008BD7CB52C480221103000F026FA53
:10086000002833D028480221103000F01FFA0190F0
:1008700025480121103000F019FA00900198C007B6
:1008800002D00724012513E00198800702D53824FF
:1008900008250DE00198400703D5FF24C134402509
:1008A00006E00198000703D50724640201256D02C4
:1008B00000982040401920400099A1430143009135
:1008C000114801211030009A00F01EFA0E48032151
:1008D000103000F0E5FA0D49042008607CBD10B529
:1008E000024609480121203000F00EFA10BD08B57B
:1008F0000221054800F0DAF90090009A0121521C0B
:10090000014800F001FA08BD6802002080E200E022
:1009100010B50021804800F083FF002801D001209D
:1009200010BD7D4800F089FB7B4800F020FC7A4830
:1009300000218069C1610121774800F08BFD002012
:1009400010BD754800218069C161704770B572485B
:100950008069016E0422114301666F4C06255C34E8
:1009600025700123002221466B4800F05CFC2570B5
:10097000012300222146684800F055FC0520207024
:10098000FF206070E21D0223F9322146624800F028
:100990004AFC70BDF8B504460D4617465E488069AE
:1009A000016E042211430166002D01D0FC2D01D9F6
:1009B0000120F8BD584E06205C363070012300221D
:1009C0003146554800F02FFC02203070380C707012
:1009D000380AB070F770002204E02078641CB11867
:1009E0000871521CAA42F8D34B492B1D00225C31DE
:1009F000494800F018FC0021484A491C9142FCD3A8
:100A0000F8BD70B505460C4643488069016E042365
:100A100019430166002C01D0FC2C01D9012070BDC6
:100A20003D4903205C310870100C4870100A887032
:100A3000CA700022002002E08B181871521CA242DA
:100A4000FAD3374A231DD11FF939334800F0EBFBA5
:100A50000022334904E08B181B792B706D1C521C4B
:100A6000A242F8D370BDF0B591B005460F460026FE
:100A700029482030437BDC083A462AA101A800948B
:100A800003F0D0F901A8FFF7CDFB234B9869016E65
:100A900004221143016600200AE099690A46643283
:100AA0001268120703D42A782D198A66361900199C
:100AB000B842F2D39869002101679869016EFF225C
:100AC0000132914302221143016698692030016886
:100AD0004907FCD50168042211430160304611B07A
:100AE000F0BD10B5032000F010F810BD10B50420C3
:100AF00000F00BF810BD10B5052000F006F810BD91
:100B000010B5062000F001F810BDC106C90E012085
:100B100088400B490860704798020020204E000072
:100B2000F40300206C656E2025692C205769642031
:100B300025692C20696E63722025690D0A0000006A
:100B400080E200E01B48416070471A4881607047AE
:100B500010B50021184801F0A9F8002801D00120A3
:100B600010BD154A1549104600F0DEFF124A14491F
:100B7000104600F0B7FF1049FF2201324C310E48F9
:100B800000F032FF002010BD0A4948680A68801A48
:100B9000002801D04A680A60704710B5064801F085
:100BA00045F810BD10B5044801F006F805490120CC
:100BB000086010BD1C000020F40400204B0B000056
:100BC000450B000080E200E010B5654C00280AD01B
:100BD0000023236002608A688260C968C16061493D
:100BE0004160002010BD7D215F48FFF725FB0120FB
:100BF0002060002010BD70B50125594C00280AD096
:100C000000232360574E4368B3420AD1012917D00D
:100C100002290CD00EE0A2215348FFF70DFB2560FE
:100C200070BDA3215048FFF707FB256070BDC36866
:100C3000012B05D0A4214C48FFF7FEFA256070BDBA
:100C4000491E0368C800001D1818026070BD70B509
:100C50000125434C00280AD000222260414B426803
:100C60009A420BD101291AD002290ED010E0C021DE
:100C70003D48FFF7E1FA2560002070BDC1213A48E8
:100C8000FFF7DAFA2560002070BDC268012A06D09D
:100C9000C2213548FFF7D0FA2560002070BD491EFB
:100CA0000268C800001D1018006870BD70B50125ED
:100CB0002B4C00280AD0002222602A4B42689A421C
:100CC0000BD101291AD002290ED010E0DA212648D2
:100CD000FFF7B2FA2560002070BDDB212248FFF744
:100CE000ABFA2560002070BDC268012A06D0DC2165
:100CF0001D48FFF7A1FA2560002070BD0068491E5D
:100D0000C9004018006870BD70B50125144C00285A
:100D10000AD000232360134E4368B3420AD101294D
:100D200017D002290CD00EE0F6210F48FFF784FA05
:100D3000256070BDF7210C48FFF77EFA256070BD75
:100D4000C368012B05D0F8210748FFF775FA256025
:100D500070BD0068491EC9004018026070BD0000E7
:100D60000C000020111111117863000070B50125ED
:100D70008A4C00280ED000212160894A41689142A6
:100D80000ED18168012911D061218648FFF754FAFC
:100D9000256070BD5F218348FFF74EFA256070BD66
:100DA00060218048FFF748FA256070BD0068012186
:100DB000FF301D30C907016070BD70B50125774C4B
:100DC00000280ED000212160754B42689A420ED156
:100DD0008268012A11D07C217248FFF72DFA256024
:100DE00070BD7A216F48FFF727FA256070BD7B211F
:100DF0006C48FFF721FA256070BD0068FF301D3098
:100E0000016070BD70B50125644C00280ED0002231
:100E10002260634B42689A420ED18268012A11D047
:100E20009A216048FFF708FA256070BD98215D4857
:100E3000FFF702FA256070BD99215A48FFF7FCF9C7
:100E4000256070BD0068FF30293002680A430260E7
:100E500070BD70B50125514C00280ED000222260D3
:100E60004F4B42689A420ED18268012A11D0BE21AE
:100E70004C48FFF7E1F9256070BDBC214948FFF7F8
:100E8000DBF9256070BDBD214648FFF7D5F9256027
:100E900070BD0068FF30293002688A43026070BD6F
:100EA00070B501253D4C00280ED0002222603C4B3D
:100EB00042689A420ED18268012A11D0E121394854
:100EC000FFF7BAF9256070BDDF213648FFF7B4F9A6
:100ED000256070BDE0213348FFF7AEF9256070BD95
:100EE0000068FF30213002680A40026070BD70B5B2
:100EF00001252A4C002810D000212160284A416891
:100F0000914212D18168012917D0FF21053125486E
:100F1000FFF792F92560002070BDFF2103312148C1
:100F2000FFF78AF92560002070BDFF2104311D48BC
:100F3000FFF782F92560002070BD0068FF3029307E
:100F4000006870BD70B50125144C002810D0002138
:100F50002160134A4168914212D18168012917D05A
:100F6000FF2122310F48FFF767F92560002070BD8F
:100F7000FF2120310B48FFF75FF92560002070BD8D
:100F8000FF2121310748FFF757F92560002070BD88
:100F90000068FF302130006870BD00000C000020A8
:100FA00011111111C463000010B500230021154A6E
:100FB0000C01145B844202D10801831802E0491C31
:100FC0000329F5DB184610BD70B5044608460E4EE1
:100FD000002C0BD000253560FFF7E6FF0146080026
:100FE0000CD020464A68FFF7EFFD70BD8F210748FF
:100FF000FFF722F901203060002070BD65600220FB
:1010000070BD0000280000200C00002014640000C7
:10101000026B81690A6782696032116889B2FF23B5
:1010200001331943436A002B01D060231943116037
:1010300000214164016481647047F8B504460127CA
:10104000FC4E002C0FD000253560FB49E06988423A
:1010500010D12046FFF7DCFF2562206B6063A0699A
:101060000A210164F8BDFF21B831F448FFF7E4F824
:101070003760F8BDFF21B931F048FFF7DDF8376080
:10108000F8BD10B5EE49ED48FFF7D6F8E949012063
:10109000086010BDF8B50124E64D002807D00026F1
:1010A0002E60E84D036AAB4208D10520F8BDAD21A2
:1010B000E248FFF7C1F82C600020F8BD06628664A4
:1010C000E14BC3648663C6630664466482618B68D1
:1010D0004362CB68836203460D7C20331D734F7CD3
:1010E000002F17D05F738F7C9F734B6943650B7E16
:1010F00058273B54D04BC361AC40641E0463446327
:10110000066046608660C66006614661497E0129C8
:1011100003D028E008275F73E5E7116E66231943C3
:1011200011669F2269460A704E708E7081698A66C8
:1011300081698E6681698E6681690A6EFF2301333B
:101140009A430A6681690A6E1A430A6681690A46E9
:1011500064321368DB0702D10B466C331B681268DC
:10116000D20700D1C96EFFF768FF0020F8BD70B547
:101170000125B04C00280BD000212160AE4AC16986
:1011800091420DD1016A5300994211D1052070BDE1
:10119000FF213A31A948FFF74FF82560002070BDC4
:1011A000FF213B31A548FFF747F82560002070BDBF
:1011B00081698A6AA54C22438A62036281690A6E48
:1011C00062231A430A6680699907C161002070BDD5
:1011D00070B50125974C00280AD000232360964A59
:1011E000C16991420CD1816C002911D0152070BDCC
:1011F000FF2188319148FFF71FF82560002070BD5E
:10120000FF2189318D48FFF717F82560002070BD58
:1012100081690022CA6181690A6E0224A2430A66BA
:101220000362002070BDF8B58C4696460024012567
:10123000804E002810D0002737606146002912D068
:10124000002B18D07C4AC16991421CD1016A52001E
:10125000914220D00620F8BD7D497848FEF7ECFF8A
:1012600035600020F8BD7A497448491CFEF7E4FF58
:1012700035600020F8BD8B2189007048FEF7DCFF47
:1012800035600020F8BD72496C48C91CFEF7D4FFD8
:1012900035600020F8BD816C002901D01520F8BD13
:1012A00081691C310F680126F607B74201D101227E
:1012B00000E0002200260E6081690E460F6E79075D
:1012C0000CD5F9070AD1476B016B8F4206D1012A71
:1012D00001D1D007F0615A486830F8BD8564614695
:1012E00081637146C163036443642D21095C756E9B
:1012F00019E0082904D0102905D0202906D007E0DC
:10130000846B247804E0846B248801E0846B246877
:101310008569AC66866BCD0876198663466C751B4D
:10132000456485696D6E2D0702D4456C002DE0D1B2
:10133000466B85692E6787693D6EFF260136B5438A
:101340003D660427012A67D181698A6A3A438A6225
:101350008069F105C1616AE08269203215686D0714
:10136000FCD515683D4315608269156E35431566D9
:101370008269526E25E08269D46E082904D0102952
:1013800009D020290FD015E0C26B002A12D0551CBD
:10139000C56314700EE0C26B002A0BD01480C26BC0
:1013A000921CC26306E0C26B002A03D01460C26BB9
:1013B000121DC2630569CA08AD1805619B1A8269CE
:1013C000526ED207D7D0426C002A25D08269526E65
:1013D00019E0082904D0102905D0202906D007E0FB
:1013E000826B147804E0826B148801E0826B1468CD
:1013F00082699466856BCA08AD188563456CAA1A24
:1014000042648269526E120702D4426C002AE0D113
:101410008269156EB5431566002B9DD181690A6EF0
:1014200032430A66026B81690A67002181640020E9
:10143000F8BD00000C0000201111111168640000BB
:101440001B04000022222222831000002B20000017
:101450002A02000070B50125AB4C00280AD00022FA
:101460002260AA4BC2699A420CD1826C002A10D029
:10147000152070BD0721C901A548FEF7DDFE2560D6
:10148000002070BDA349A248FEF7D6FE25600020CB
:1014900070BD00232C22125C521E002A07DB0C4672
:1014A000D440E40700D05B1C521E002AF7DA012B5F
:1014B00001DD994870BDC9434163002070BD70B51E
:1014C0000125914C002808D0002121608F4AC16974
:1014D00091420AD1406BC04370BD8E498C483E3169
:1014E000FEF7AAFE2560002070BD0F218901884803
:1014F000FEF7A2FE2560002070BD70B50125824C6C
:1015000000280AD000232360002A0DD07F4EC36933
:10151000B34210D1C264016570BD7E497C487C3104
:10152000FEF78AFE256070BD7A4979487D31FEF765
:1015300083FE256070BD774975487E31FEF77CFEDD
:10154000256070BDF8B5044600216F4D00281DD000
:10155000002028606069401C6061A069056A026A19
:101560002A430262E80719D0616C206C451A206892
:10157000401C20602046FFF74BFDA069406E664985
:10158000E36C2A46491F206D984751E7624960483D
:101590002A39FEF751FE0120286049E72D20005D21
:1015A00004272A4640233A402B401A4365D0A269BB
:1015B000166EBB0133431366A269526E24E0A16923
:1015C000C96E082804D0102809D020280FD015E0B3
:1015D000E26B002A12D0531CE36311700EE0E26B41
:1015E000002A0BD01180E26B921CE26306E0E26BF2
:1015F000002A03D01160E26B121DE2632269C30866
:10160000D2182261A269526ED207D8D0626C002A29
:1016100024D0A269526E19E0082804D0102805D001
:10162000202806D007E0A16B097804E0A16B0988A7
:1016300001E0A16B0968A2699166A36BC2089B18BF
:10164000A363636C9A1A6264A269526E120702D491
:10165000626C002AE0D1A06906660EE0216BA069E9
:101660000167A069816AB94381620020A0640921F1
:10167000E36CC901226C206D9847280605D500222D
:101680009121E36CC900206D9847E80505D52249F2
:101690000022E36C491D206D9847A8070AD5616CAC
:1016A000206C421AE068401CE0601B49E36CC91CD6
:1016B000206D9847A8060AD5616C206C421AA06874
:1016C000401CA0601449E36C891E206D98472807D0
:1016D0000AD5616C206C421A6068401C60600E493B
:1016E000E36CC91E206D9847A80400D4A0E6616C85
:1016F000206C421A6068401C60600749E36C891DD9
:10170000206D984794E600000C0000201111111183
:1017100068640000810300008404000070B50125A6
:10172000314C00280AD000222260304BC2699A4214
:101730000BD1826C002A0FD0152070BD82212C485D
:10174000FEF77AFD2560002070BD83212848FEF752
:1017500073FD2560002070BDCA0704D0826A002A8C
:1017600001D0244870BD8569603528680022224C6C
:10177000D300E6580E4203D01B195B68184302E001
:101780001B195B689843521C052AF1D3286000207E
:1017900070BD70B5014600200125134C00290AD008
:1017A00000222260114BCA699A420BD189690B6EE3
:1017B0000021114C0DE0CD210D48FEF73DFD2560C7
:1017C000002070BDCE210A48FEF736FD25600020BE
:1017D00070BDCA0015196D681D4201D0A258104392
:1017E000491C0529F5D370BD0C0000201111111101
:1017F000B464000086040000C800002010B5044650
:1018000000200021144A1C234B43D35AA34203D186
:101810001C204143881810BD491C0429F3D310BD76
:1018200070B504460D4D002C0CD0002028600846F1
:10183000FFF7E4FF014608000CD020464A68FFF796
:1018400029FC70BD8A210648FEF7F6FC01202860BD
:10185000002070BD022070BD580000200C00002048
:101860000865000010B5FF21C0319A48FEF7E4FC7E
:1018700099490120086010BD10B5974C002812D07E
:10188000002121604162C162816201638163416321
:10189000924B0362C261924BC3634364D16000F018
:1018A00055FA002010BD8F218A48FEF7C5FC0120A3
:1018B0002060002010BD30B50021C3691C469A6825
:1018C0009A68D2B223460025DD60154607E0426AD9
:1018D000C369545C5C60491CC3699A68D2B2120740
:1018E00002D4C26A8A42F2D8426A52184262C26A7A
:1018F000521AC26282685218826010221540C06972
:10190000C560084630BDF8B50124734D002818D0D5
:1019100000232B6000291BD0704F066ABE421ED1E7
:10192000002A23DBC469254608352D68E3608262FE
:10193000C262416210210D40C169CD60FFF7BBFF5B
:10194000F8BDDE216348FEF777FC2C600020F8BD6F
:10195000DF216048FEF770FC2C600020F8BDE0211C
:101960005C48FEF769FC2C600020F8BDE121594875
:10197000FEF762FC2C600020F8BD70B50021C26942
:10198000134608331B68DCB20023D3601AE0C36936
:101990001A4608321268D2B2D50716D01B680E4616
:1019A000056B491CAB55930602D503695B1C0361AB
:1019B000130602D543695B1C4361520602D5826956
:1019C000521C8261826B8A42E1D8026B5218026318
:1019D000826B521A8263C2685218C260102214408D
:1019E000C069C460084670BDF8B501243A4D0028AE
:1019F00018D000232B6000291CD0384F066ABE4245
:101A000020D1002A26DBC469254608352D68E3600D
:101A100042638263016310210D40C169CD60FFF70D
:101A2000ACFFF8BDFF2132312A48FEF705FC2C60DF
:101A30000020F8BDFF2133312648FEF7FDFB2C6066
:101A40000020F8BDFF2134312248FEF7F5FB2C6061
:101A50000020F8BDFF2135311E48FEF7EDFB2C605C
:101A60000020F8BD70B501251B4C00280FD00021C7
:101A700021601A4A016A914210D1C06901460831B9
:101A800009681022114003221143C16070BDFF217B
:101A90006F311048FEF7D0FB256070BDFF2170311B
:101AA0000C48FEF7C9FB256070BD10B50A4C002834
:101AB00007D000212160C06980684007C017401C22
:101AC00010BDFF219A310348FEF7B6FB01202060CC
:101AD000002010BD586500000C00002011111111EC
:101AE0006518000070B501255F4C00280AD000235E
:101AF000236000290CD05D4E036AB3420ED1C1634E
:101B0000026470BD68215A48FEF796FB256070BDDF
:101B100069215748FEF790FB256070BD6A21544843
:101B2000FEF78AFB256070BD70B501254E4C00287C
:101B30000AD00023236000290CD04C4E036AB34224
:101B40000ED14164826470BD89214948FEF774FB5F
:101B5000256070BD8A214648FEF76EFB256070BD8A
:101B60008B214348FEF768FB256070BD10B5044625
:101B7000E06A002806D02046FFF79DFE2068401C42
:101B8000206010BDA16A0020A062626CA06C90472A
:101B9000F4E710B50446A06B002802D02046FFF7FA
:101BA000ECFEA06B002803D1E26B616B206C9047C8
:101BB0006068401C606010BD70B504462A4D002C62
:101BC00011D000202860E0698568A80702D020466F
:101BD000FFF7DFFF680705D5A06A002802D020467E
:101BE000FFF7C4FF70BDA6212148FEF725FB0120A9
:101BF000286070BD70B501251B4C002808D000215D
:101C000021601A4B026A9A4209D1C069C16070BD55
:101C1000FF2126311648FEF70FFB256070BDFF211E
:101C200027311348FEF708FB256070BD70B501250C
:101C30000D4C002809D0002121600C4A016A914214
:101C40000AD1C0691021C16070BDFF21443108482C
:101C5000FEF7F2FA256070BDFF2145310448FEF71A
:101C6000EBFA256070BD00000C000020111111116D
:101C7000AC65000082681207FCD44160704781683F
:101C8000C907FCD00068C0B27047000010B500233F
:101C90000021144A0C01145B844202D1080183180C
:101CA00002E0491C0029F5D0184610BD70B5044665
:101CB0000D4D002C0CD0002028600846FFF7E6FFF1
:101CC000014608000CD020464A68FFF7D5FD70BDDC
:101CD00085210648FEF7B0FA01202860002070BD7B
:101CE000022070BDF00000200C00002004660000FF
:101CF00070B50125254C002816D00022226000294D
:101D000018D0234B026A9A421AD102680A604268CC
:101D10004A6082688A60C268CA6002690A61826930
:101D20008A614069486170BD60211A48FEF784FAF3
:101D3000256070BD61211748FEF77EFA256070BDF1
:101D400062211448FEF778FA256070BD70B5012550
:101D50000E4C00280DD0002121600D4B026A9A42E2
:101D60000DD1016041608160C160016181614161AB
:101D700070BD83210748FEF75FFA256070BD84219E
:101D80000448FEF759FA256070BD00000C000020E1
:101D9000111111116066000070B50E4605466035E0
:101DA00080307D21C068C90002F038F970430446D4
:101DB0000021284600F0F9FE0021284600F013FE1D
:101DC0000021284600F073FEA042F9D300212846E6
:101DD00000F03DFE70BDF0B585B007461E46684672
:101DE0000171002401A803E0135D04196370ECB2D3
:101DF000B44202DA651C0A2DF6D33C468034607C7E
:101E0000884200D06174384600F072F9002809D188
:101E10000090217C731C01AAF86800F0D8FB3846BA
:101E200000F09EF905B0F0BD10B5044677480146B4
:101E30004268204600F02AF9002801D0012010BD98
:101E4000204600F055F91520C0012018002101603E
:101E5000002010BD70B505460C4621462846626834
:101E600000F030FD284600F058FD2188284600F09B
:101E700092FD00221146284600F044FE70BDF8B5E0
:101E8000069E079D044600206F46387078705F48B4
:101E90004160204680300274C5605D480680436022
:101EA0008560014620466030FFF7D4FF2046FFF7EB
:101EB000BBFF02236A4619462046FFF78CFF0F211D
:101EC0002046FFF769FFF8BDFFB581B00A9E0546C1
:101ED0001746284600F00CF90028A3D12C46803480
:101EE0006946607C097A88420AD002200090217CF1
:101EF000012302AAE86800F06AFB6846007A607471
:101F0000002E03D031462846FFF746FF0020009000
:101F1000217CE8683A46049B00F0D0FA284600F09D
:101F20001FF97FE77CB507210091022301AA002158
:101F3000FFF7CAFF6846407902F057FD044668463D
:101F40000D46007902F051FD082202F075FE22468E
:101F50002B4602F0CDFA02F011F90F21C94302F02D
:101F6000FDFF02F099FE00222A4B02F041FD02F033
:101F700005F902F091FE0022274B02F0C6FA02F0AA
:101F8000FDF87CBD7CB507210091022301AA012147
:101F9000FFF79AFF6846407902F027FD044668463D
:101FA0000D46007902F021FD082202F045FE22468E
:101FB0002B4602F09DFA02F0E1F80F21C94302F02E
:101FC000CDFF02F069FE0022144B02F011FD02F079
:101FD000D5F87CBD10B52121490604F08FF802F038
:101FE0005BFE0F4A0F4B02F0B3FA02F0C7F810BDC8
:101FF00010B502F051FE0A4A0A4B02F0F9FC002229
:10200000094B02F075FA02F0B9F810BD000100208A
:102010004006002000006440000044400000594099
:10202000CDCCCCCCCCCCFC3F0000404070B50125E1
:10203000F04C002809D000212160EF4A416991420B
:102040000AD1C0680A21016470BDFF216631EB48E6
:10205000FEF7F2F8256070BDFF216731E748FEF713
:10206000EBF8256070BD10B5E549E448FEF7E4F8EB
:10207000E0490120086010BD10B52D210901DF489D
:10208000FEF7DAF8DB490120086010BD70B50446A0
:10209000D84D002C08D0002028606061D94DA3697C
:1020A000AB4209D1052070BD9E21D448FEF7C4F88B
:1020B00001202860002070BDA061E260D24AA264C5
:1020C000A06222656062D14A22648A682261CA4A9B
:1020D00062612062A0630A7B3C210A55A065E0652D
:1020E0002046FFF7A3FF204600F0B0FB002070BDA4
:1020F00070B50125BF4C002824D000222260BE4BC1
:102100004169994225D1C1688A62C1680B6A0B6234
:10211000C168FF31013101230B60C168FF312131FA
:102120000A60C1680C6A21231C400C62C1688C6A79
:102130001C438C62B34981618265C0688907C161B3
:10214000002070BDEF21AD48FEF776F82560002035
:1021500070BDF021A948FEF76FF82560002070BD22
:1021600070B5A44D002814D000242C60C168CC6147
:10217000C168CB1DF9331B68CA1DFD3212680425E6
:102180002B4002252A4013430CD0A807C861A04861
:1021900070BDFF213A319948FEF74EF801202860C2
:1021A000002070BD8461002070BD70B50125914C88
:1021B00000280BD000232360954B363B9A420DDA62
:1021C000022913D0012922D00F2070BDFF21A03198
:1021D0008A48FEF731F82560002070BDFF21A1314B
:1021E0008648FEF729F82560002070BD51060B0EC9
:1021F000C168FF3111310B600169012905D19105D9
:10220000490FC068FF301D300160002070BDC26101
:10221000002070BD10B50022764C002806D00023A7
:10222000236002290BD0808B80B210BDFF21E431E6
:102230007248FEF701F801202060002010BDC1683F
:102240000B46FF3311331B68DBB20069012803D151
:10225000FF311D31086882B21002184380B210BDF0
:1022600010B5644C00280BD0002222603C22125C86
:10227000002A0ED0C068FF3025300160002010BD5C
:102280005F495E48D439FDF7D7FF01202060002068
:1022900010BD132010BD70B50125564C00280ED07E
:1022A00000222260002912D03C22125C002A16D0A3
:1022B000C068FF30253000680870002070BD4721DD
:1022C000C9004E48FDF7B8FF2560002070BD4C499D
:1022D0004A48AC39FDF7B0FF2560002070BD1320DF
:1022E00070BD10B5434C002809D000212160C068A2
:1022F000FF300530006880070AD4002010BD4B2154
:10230000C9003E48FDF798FF01202060002010BD65
:10231000012010BD70B5384E43690125354CB342DC
:1023200008D10023236000280BD0002A10D082643B
:10233000C16470BD9F2189003048FDF77DFF256095
:1023400070BD2F492D486839FDF776FF256070BDB7
:102350002B492A486739FDF76FFF256070BD70B5BE
:102360000125244C00280AD000232360224E436913
:10237000B3420BD1002A10D00265416570BD2049DF
:102380001E484C39FDF758FF256070BD1C491B489D
:102390004B39FDF751FF256070BD194917484A397F
:1023A000FDF74AFF256070BD70B50125114C00286E
:1023B0000AD000232360104E4369B3420BD1002A98
:1023C00010D00264416470BD0D490C482E39FDF7F0
:1023D00033FF256070BD5721C9000848FDF72CFF69
:1023E000256070BD064905482C39FDF725FF25609D
:1023F00070BD00000C00002011111111BC6600001E
:10240000E50200002222222279200000672000003D
:1024100035040000FF3005300068400701D5012079
:1024200070470020704700B503460021F24A05E0DE
:102430000846491C904201D9012000BD1846FFF70B
:10244000E9FF0028F4D100BDF0B504461046E21DB6
:10245000F9322BE0012801D0132607E0112605E010
:102460001568012806D009E0354226D1256A2F07D4
:10247000FAD5F5E7002B01D101261660022802D11A
:102480001026354315602546FF350D352D680D7036
:10249000491C012803D1012B01D1252515602546B2
:1024A0002035266A0B273E402E60401E0028D1D1E1
:1024B000002B02D1216AC906FCD5F0BDF8B504464F
:1024C000084694461E4622462032216A0B231940B4
:1024D0001160D11DF93100230B60E51DF935296824
:1024E000470601203F0E074310468B06E830002BBD
:1024F00014DB07600520012E00D115202860E01DA7
:10250000FD300168009101E00168009100994907E0
:10251000FAD5206A10210840106007E00822914394
:10252000012E01D110221143296007603246614615
:102530002046069BFFF788FF07462868800601D4DF
:10254000002028602046FFF76EFF002801D0002001
:10255000F8BDF01BF8BDF0B59C460646FF36C71D1A
:102560000936F9370346203327E01046F0BD6407EB
:1025700005D5012A08D90C78491C346018E0046A92
:1025800013252C42F3D0F0E76446002C01D1092436
:102590003C600C78491C34606446012C08D1046A04
:1025A00004252C401C60046A6407FCD52D243C6083
:1025B000046A04252C401C60521E002ADFD16146AB
:1025C000002902D1016AC906FCD51046F0BDFFB54D
:1025D00081B005460C461F462846FFF724FF002819
:1025E00002D0002005B0F0BDEE1DF936306882063D
:1025F0006006000E4108304608304900041F002ADA
:1026000014DB0160E838296A4907490F01600D2190
:1026100031602168009101E021680091009949072B
:10262000FAD5296A10221140016000E001603A46A3
:1026300028460A9B0399FFF78EFF31688A0612D459
:102640004A0702D50422914331602168890702D5E7
:102650000021316007E02168009101E021680091CC
:1026600000994907FAD4381ABCE770B503461046FA
:102670000FE0012803D01322DC1DFD340EE01122EF
:10268000FAE71A46FF320D3212680A70491C401EE2
:10269000C0B20028EDD170BD1542FCD11D6A26687C
:1026A0007606F9D4EDE770B50446084611461D4696
:1026B00023462033226A5207520F1A604006000E4A
:1026C000012210431E46E836FF3001303060321FD1
:1026D000106800E010684007FCD5206A1022104006
:1026E0001860E81DFF30FA3030602A462046FFF7B8
:1026F000BCFF06462046FFF796FE002801D00020CA
:1027000070BDA81B70BDF0B5044610462546FF35C8
:10271000093518E013260BE0FF3401340321216052
:1027200001212160F0BD520702D5012804D005E047
:10273000226A3242F7D0EFE7002B0CD00A78491C0E
:102740002A60401EC0B20028E4D1002BEAD1216AE1
:10275000C906FCD5F0BD0A78491CFF32FF320232AF
:102760002A60EEE7F8B504460F4616461D46204699
:10277000FFF759FE002801D00020F8BD2246203284
:10278000206A4007400F10607806000E410810468E
:10279000BB054900E830002B03DBFF31013101604C
:1027A00003E003231B02C9180160E11DFD31086825
:1027B00000E008684007FCD5206A1021084010603E
:1027C0002A4631462046069BFFF79DFF281AF8BD92
:1027D000014640310A220A60E0310F220A602039A6
:1027E00002220A6001220A60081D0068C02801D088
:1027F00001207047002070471027000070B5234B60
:1028000042690125224C9A420ED100222260002802
:1028100010D0002914D00378401C0B70491C521CA6
:10282000D2B2092AF7D370BD58211A48FDF704FD2A
:10283000256070BD59211748FDF7FEFC256070BD6D
:102840005A211448FDF7F8FC256070BD70B50F4A99
:10285000416901250E4C91420BD1002222600028D3
:102860000DD000210270401C491CC9B20929F9D3BE
:1028700070BD7B210748FDF7DFFC256070BD7C2122
:102880000448FDF7D9FC256070BD0000111111113D
:102890000C0000200C67000070B50125FE4C0028DC
:1028A00009D000202060022904D3FC49FC48FDF730
:1028B000C3FC256070BDF949F948491EFDF7BCFC11
:1028C000256070BD70B50125F34C002813D000239E
:1028D0002360002915D0002A19D043610C6889684B
:1028E0000460816042600261EE4941628062C360BF
:1028F000ED49416170BD7221E948FDF79DFC2560FD
:1029000070BD7321E648FDF797FC256070BD74210A
:10291000E348FDF791FC256070BD7CB505220125DB
:10292000DD4C00280DD000212160DF4B4169994228
:102930000ED181690091C169019100216C465D0051
:102940000DE09721D648FDF777FC256000207CBD7F
:102950009821D348FDF770FC256000207CBD8B00DA
:10296000E358AB4211D0D14A0369565C9B1900264B
:102970005E60565C03699B19FF2621361E60525C1F
:1029800003699A18002313600022491CC9B2022966
:10299000E5D310467CBD70B50446BF4D002C0AD06F
:1029A00000202860C248A26982420CD1E2698242BA
:1029B00009D1052070BDCF21B948FDF73DFC0120AC
:1029C0002860002070BD084600F05EFA014608004D
:1029D00007D020464A68FFF775FF2046FFF79DFFA6
:1029E00070BD022070BD70B50125AB4C002819D018
:1029F0000022226002291BD2AB4B42699A421DD1B0
:102A0000AA4D02696B5CD218136820241460A84A8E
:102A100000291AD0C2610069695C401880210B430B
:102A2000036070BDFE219E48FDF706FC256070BD69
:102A3000FF219B48FDF700FC256070BDFF2101319F
:102A40009748FDF7F9FB256070BD8261E3E770B53B
:102A50000125914C002813D000232360022916D2AF
:102A6000914E4269B24219D1904A0469525CA2184F
:102A700014688025AC431460002916D0C36170BD72
:102A8000FF2140318648FDF7D7FB256070BDFF214F
:102A900041318348FDF7D0FB256070BDFF214231F5
:102AA0007F48FDF7C9FB256070BD836170BD70B5BF
:102AB0000125794C00280DD000222260022911D274
:102AC000794B42699A4215D1784A0069515C4018A5
:102AD000806870BDFF2173317148FDF7ADFB256043
:102AE000002070BDFF2174316D48FDF7A5FB256006
:102AF000002070BDFF2175316948FDF79DFB256001
:102B0000002070BD70B50125634C00280DD0002356
:102B10002360022910D2644E4369B34213D1634B40
:102B20000069595C4018426070BDFF2193315C48D8
:102B3000FDF782FB256070BDFF2194315848FDF7F9
:102B40007BFB256070BDFF2195315548FDF774FB77
:102B5000256070BD70B501254F4C00280DD00022B6
:102B60002260022911D2504B42699A4215D14F4A34
:102B70000069515C4018406870BDFF21AF31484882
:102B8000FDF75AFB2560002070BDFF21B03144489D
:102B9000FDF752FB2560002070BDFF21B131404898
:102BA000FDF74AFB2560002070BD70B501253A4C49
:102BB000002814D000222260022917D23A4B426921
:102BC0009A421AD1394D02696B5CD3181A682024D5
:102BD00014431C600069695C4018026070BDFF21ED
:102BE000CC312F48FDF728FB256070BDFF21CD318A
:102BF0002B48FDF721FB256070BDFF21CE31284811
:102C0000FDF71AFB256070BD70B50125224C002828
:102C10000FD000222260022913D2234B42699A422C
:102C200017D1224A0069515C40180068C005C00FE6
:102C300070BDFF21F9311A48FDF7FEFA256000202A
:102C400070BDFF21FA311648FDF7F6FA2560002025
:102C500070BDFF21FB311248FDF7EEFA2560002020
:102C600070BDF7B582B007460D4601260A4C002F0D
:102C700048D0002020600C4A7969914249D106462B
:102C8000B8694C00A04203D100213846FFF7DFFEAF
:102C9000F869A04212D10DE00C000020D302000020
:102CA0006467000099280000111111111001002023
:102CB0002222222201213846FFF7C9FE6B4A3869D9
:102CC00011784118086812231843694C20400860A5
:102CD0005178386940180168194321400160B9688A
:102CE000644A4808801801F099F90446049885421E
:102CF00005D36000A84202D80499884211D90F2058
:102D000005B0F0BD5C495D48FDF796FA26600020ED
:102D1000F6E759495948491CFDF78EFA266000200C
:102D2000EEE7600801904019214601F077F9851E11
:102D3000049901984018214601F070F9841E002181
:102D4000C9430020491BB04101D20F20D8E74749B1
:102D500038690A78801845604A7838698018446074
:102D60000A7838698018026852085200026049786F
:102D70003869401801684908490001602846002167
:102D800002F0E9F805462046002102F0E4F8294661
:102D900001F0ACFF3A4903F059F902F057F8C0B21C
:102DA000AEE770B504460126364D002C24D0002035
:102DB0002860206A00281ED12C4D206929784018EF
:102DC00001688122920011430160697820694018EE
:102DD00001681143016000212046FFF7E6FE012152
:102DE0002046FFF7E2FE2978206940180168B20208
:102DF00011430160266270BD1F4920484E31FDF726
:102E00001BFA2E6070BD70B504461E4E002C25D0F6
:102E100000253560206A00281FD000212046FFF7DA
:102E200016FE01212046FFF712FE00212046FFF783
:102E3000BCFE01212046FFF7B8FE0C4B2069197833
:102E400040180168812292009143016059782069FD
:102E50004018016891430160256270BD064907482A
:102E60008431FDF7E9F90120306070BD10010020C8
:102E7000FBF7FFFF00CA9A3B1D02000064670000D9
:102E80000000C8420C0000200020704738B50446FE
:102E9000684602704370201DFEF7DCFA02236A4682
:102EA0006946201DFEF7BFF90021201DFEF7D2FA6A
:102EB00038BD10B50446002918D000232022042173
:102EC0002046FFF7E3FFA423202204212046FFF73A
:102ED000DDFF0023212204212046FFF7D7FF002336
:102EE000232204212046FFF7D1FF10BD002320221A
:102EF00004212046FFF7CAFF10BD10B50446002983
:102F00001ED03023202202212046FFF7BFFF0023DE
:102F1000212202212046FFF7B9FF002322220221AD
:102F20002046FFF7B3FF0423232202212046FFF7A8
:102F3000ADFF0023242202212046FFF7A7FF10BD8A
:102F40000323222202212046FFF7A0FF10BD10B567
:102F50000446002929D0002A1AD0012A17D1382383
:102F60001F2201212046FFF791FF20231A4601214D
:102F70002046FFF78BFF2023102201212046FFF778
:102F800085FF38231E2201212046FFF77FFF10BD59
:102F900038231F2201212046FFF778FF20231A46FD
:102FA00001212046FFF772FF10BD002A20D0012A20
:102FB000FAD100231F2201212046FFF767FF0023DB
:102FC000202201212046FFF761FF00232322012157
:102FD0002046FFF75BFF00231E2201212046FFF75A
:102FE00055FF0023102201212046FFF74FFF10BD9F
:102FF00000231F2201212046FFF748FF0023202243
:1030000001212046FFF742FF10BD10B50446012202
:1030100000212046FFF79BFF00212046FFF76DFFB0
:1030200000212046FFF745FF10BD0100FB4806D0F8
:10303000012905D0022905D0032900D1F84870479D
:10304000F8487047F84870470100F84804D0012953
:1030500003D0032900D1F6487047F64870470100B5
:10306000F54806D0012907D0022903D0032900D151
:10307000F2487047F2487047F248704710B504466E
:10308000F148014642682046FEF704F8002801D0C6
:10309000012010BD07212046FEF740FB002801D08B
:1030A000012010BD00212046FEF7D4F9002801D0F0
:1030B000012010BD2046FEF75AF8A0690021C16129
:1030C000002010BD10B504462160DF484260032196
:1030D000017420684160201DFFF7D0FF0020FFF73A
:1030E000BEFF60660020FFF7AFFFA0660020FFF77D
:1030F0009CFFE06610BD10B504462046FFF785FF33
:1031000000206066A066E06610BD10B5044601228E
:1031100011462046FFF71BFF01212046FFF7EDFE79
:1031200001212046FFF7C5FE10BDFFB581B0064660
:1031300017461D46681C00F01DFE044600200021B5
:1031400002E022185170401CA842FADB02980128C4
:1031500012D0C02007432770301D0299FEF77AF97C
:103160006B1C22462146301DFEF75DF80021301D04
:10317000FEF770F9002008E0802007432770EBE796
:1031800021184A780A990A54401CA842F8DB2046C4
:1031900000F021FE05B0F0BD1CB5044601A800906A
:1031A00002232B2204212046FFF7BFFF694608793E
:1031B00049790902014308B201F00FFCA34AA44B6C
:1031C00001F016FC0022A34B01F092F900F0D6FFAB
:1031D0008034E0611CBD1CB501A9009103232822A5
:1031E0000421FFF7A2FF6846017942798079000443
:1031F0001202104308431CBD10B504462046FFF7D9
:10320000EAFF010202D5FF2109060843000B01F085
:1032100061FE8034A06110BD10B50446084601F07F
:1032200051FEE16E02F012FF10BDFFB585B00746FA
:103230000D46164604AC012327220221384600948D
:10324000FFF773FF6846007C0007F4D502A80090E2
:103250000623282202213846FFF767FF6F46387A97
:10326000797ABA7AFB7A3C7B7F7B09020143298019
:10327000180210433080380208992043088009B0B2
:10328000F0BD3EB505466B4601AA02A92846FFF7E8
:10329000CCFF68460821415E2846FFF7BDFF2C465B
:1032A0008034A06068460421415E2846FFF7B4FFE1
:1032B000E06068460021415E2846FFF7ADFF2061CF
:1032C0003EBD10B50446084601F0FCFDA16E02F0BB
:1032D000BDFE10BDFFB583B00C46154601A9009197
:1032E000062318220121FFF720FF6F4638797B79EA
:1032F000B979FA793E7A7F7A1B0203432380100260
:1033000008432880380206993043088007B0F0BD92
:10331000FEB507460C4615461E466B4601AA02A995
:103320003846FFF7D7FF68460821415E3846FFF769
:10333000C8FF206068460421415E3846FFF7C1FFA0
:10334000286068460021415E3846FFF7BAFF3060CA
:10335000FEBD10B50446084601F0B4FD616E02F0F2
:1033600075FE10BDFFB583B00C46154601A900914E
:10337000062328220121FFF7D8FE6F4638797B7992
:10338000B979FA793E7A7F7A1B02034323801002CF
:10339000084328803802069930430880B6E7FEB516
:1033A00007460C4615461E460020029001900090EC
:1033B0006B4601AA02A93846FFF7D4FF6A460821E6
:1033C000515E3846FFF7C5FF20606A460421515E12
:1033D0003846FFF7BEFF28606A460021515E384636
:1033E000FFF7B7FF3060FEBD10B5044623467833C3
:1033F0001A1F111F2046FFF7D2FF234684331A1FDE
:10340000111F2046FFF784FF2046FFF73AFF2046B2
:10341000FFF7F2FE2046FFF7BFFE10BDF7CC1239D2
:10342000240B183A240B98399F71E139295C0F3C21
:10343000295C8F3D295C8F3C40DA7F3840DA7F3948
:1034400040DAFF38B0E33F3A140100207D09151C33
:103450005E10613F0040454038B504462046943038
:10346000012300900F2219462046FFF75EFE2046FA
:103470009530009001230F2202212046FFF755FED0
:1034800020469630009001230F2204212046FFF7AA
:103490004CFE38BD38B50446802002436B461A7096
:1034A00000205870201DFDF7D5FF02236A466946AB
:1034B000201DFDF7B8FE0021201DFDF7CBFF6B4658
:1034C000587838BDFFB581B0064617461D46681CC2
:1034D00000F050FC0446002004E00A992218095C20
:1034E0005170401CA842F8DB0298012814D04020FB
:1034F00007432770301D0299FDF7ACFF6B1C224675
:103500002146301DFDF78FFE0021301DFDF7A2FF83
:10351000204600F060FC3DE62770EBE7FFB583B086
:1035200007460C9D0D981C46854002AE009601236F
:103530003846059A0499FFF7F8FD6846007AA043DB
:103540002540254005430295009601233846059AFB
:103550000499FFF7B7FFD9E67CB5069D1C4601AB81
:1035600000930123FFF7E1FD0120A840401EA04089
:10357000C1B2684600790840E0407CBDFFB583B029
:103580000C9E07461C4602AD009501233846059A5D
:103590000499FFF7CAFD002E04D06946087A20433B
:1035A000029003E06946087AA04302900095012347
:1035B0003846059A0499FFF785FFA7E61CB504462F
:1035C0000A461046FFF74BFD60660320009201900B
:1035D0001823202201212046FFF7A0FF1CBD08B5BB
:1035E00002210091032320220121FFF7B5FF0028CB
:1035F00007D001280BD0022805D0032805D00220CF
:1036000008BD022008BD042008BD082008BD102008
:1036100008BD1CB501A90123009127221946FFF717
:1036200084FD68460079C007C00F1CBD70B5054613
:103630001C460B46002A01D08020034306220121AC
:103640002846FFF723FC1E2201212846FFF722FF10
:103650000346002C01D0022003431E2201212846EC
:10366000FFF714FC70BD10B5002902D0012907D066
:103670000CE026220121FFF70DFF410607D405E0EB
:1036800014220121FFF706FF410600D4FF20C4E603
:10369000FFB581B00C4615461F460198466E204680
:1036A000314601F023FB01F0D1FBC4B2314628467C
:1036B00001F01CFB01F0CAFBC5B23146384601F0EF
:1036C00015FB01F0C3FBC6B2234607220121019876
:1036D000FFF7DCFB2B46082201210198FFF7D6FB00
:1036E0003346092201210198FFF7D0FB0A984306CF
:1036F0005B0E0B98002801D0802003430A22012191
:103700000198FFF7C3FB45E51CB504460A46104681
:10371000FFF79AFCA0660320009201901823102264
:1037200001212046FFF7FAFE1CBD08B502210091D9
:10373000032310220121FFF70FFF002807D00128E3
:1037400007D0032808D0F52001F0C4FB08BDF52000
:10375000FAE7FF20F530F7E77D200001F4E71CB51C
:1037600001A90123009127221946FFF7DEFC6846D4
:1037700000798007C00F1CBD10B51C460B46002AFF
:1037800001D080210B43002C01D040210B4330227B
:103790000121FFF77BFB40E6F8B50446079F069E34
:1037A00008461546A16E01F0A1FA01F04FFB410455
:1037B0004B0E69460B704870002D04D0012D11D0BE
:1037C000022D28D11BE068460370312201212046DA
:1037D000FFF75CFB68464378322201212046FFF761
:1037E00055FB18E0332201212046FFF74FFB6846C6
:1037F0004378342201212046FFF748FB0BE03522B5
:1038000001212046FFF742FB68464378362201211A
:103810002046FFF73BFB73065B0E002F01D0802094
:103820000343372201212046FFF730FBF8BDF8B5EE
:10383000069D04461E460120002902D0012908D019
:103840000EE0134600900C2201212046FFF796FE61
:1038500006E0134600900D2201212046FFF78EFE60
:10386000222201212046FFF715FE012E0CD0DF2178
:103870000840002D0BD010210843034622220121CD
:103880002046FFF703FBF8BD20210843F1E7EF21B5
:1038900008400346F2E71CB504460A461046FFF707
:1038A000C4FBE066052000920190602321220221E2
:1038B0002046FFF733FE1CBD08B502210523212257
:1038C0000091FFF749FE002807D0012807D0022801
:1038D00007D0032807D0042008BD042008BD082015
:1038E00008BD0C2008BD102008BD1CB50C4601A960
:1038F0000091012327220221FFF717FC69460120CE
:103900000979A0400840E0401CBD10B51C464B0999
:103910005B01002A01D104221343002C01D10222B1
:103920001143002901D001210B4330220221FFF76E
:10393000ADFA72E570B504460846E16E01F0D6F9BD
:1039400001F084FA41044B0EC5B233220221204615
:10395000FFF79CFA2B46322202212046FFF796FA07
:1039600070BD10B531220221FFF794FDC10701D1CE
:103970004008400051E51CB501A900910123272210
:103980000421FFF7D2FB68460079C007C00F1CBDB9
:103990001CB501A90091012327220421FFF7C5FBD3
:1039A000684600798007C00F1CBDFFB581B00A9F33
:1039B0000B980C4615461E46009008232022042131
:1039C0000198FFF7DBFD2346C3200340012D01D101
:1039D00080200343012E01D1402003433B43222298
:1039E00004210198FFF752FA23462322042101986B
:1039F000FFF74CFA0C98002801D1042004430D98DD
:103A000023460343242204210198FFF73FFA82E56D
:103A100070B5054608460C2101F0A0FA01F016FA2F
:103A200080B2030AC4B2312204212846FFF72EFADD
:103A30002346302204212846FFF728FA70BD10B52E
:103A400025220421FFF726FD410700D40020E4E4ED
:103A50001CB5052300290DD0012913D0022919D046
:103A6000032906D104210092702301912022FFF73F
:103A700055FD1CBD01930092E02320220121FFF798
:103A80004DFD1CBD01930092E02310220121FFF7A0
:103A900045FD1CBD0321009201911C23202202211F
:103AA000FFF73CFD1CBD08B5032200290CD00129FD
:103AB00011D0022916D0032905D104230092202217
:103AC0001946FFF749FD08BD009205232022012178
:103AD000FFF742FD08BD0092052310220121FFF7E8
:103AE0003BFD08BD0092032320220221FFF734FD95
:103AF00008BDF8B58C4C8D4E8D4F8E4D002907D0EA
:103B0000012922D002293DD0032958D02846F8BDEA
:103B10000021FFF7C8FF030002F019FA08050709A2
:103B20000B0D0F1113150020F8BD2046F8BD82487B
:103B3000F8BD3046F8BD3846F8BD8048F8BD80482D
:103B4000F8BD2846F8BD0020F8BD0121FFF7ABFF06
:103B5000030002F0FCF9080507090B0D0F111315FE
:103B60000020F8BD7748F8BD7748F8BD3046F8BD6D
:103B70003846F8BD7148F8BD7148F8BD2846F8BD13
:103B80000020F8BD0221FFF78EFF030002F0DFF9ED
:103B9000080507090B0D0F1113156C48F8BD6C488B
:103BA000F8BD6C48F8BD6C48F8BD2046F8BD6B48C0
:103BB000F8BD6B48F8BD6B48F8BD2046F8BD032141
:103BC000FFF771FF030002F0C2F9050406090B0DAF
:103BD0000F000020F8BD7F20C005F8BD6248F8BD89
:103BE0006248F8BD6248F8BD0020F8BD7CB50546C6
:103BF000144601AA01290FD0042928D100920123DB
:103C000021222846FFF791FA002C21D06946087935
:103C100040210843019020E001230092232219460D
:103C20002846FFF782FA002C05D069460879022160
:103C30000843019004E069460879FD21084001909D
:103C400068460379232201212846FFF71FF97CBD2E
:103C500069460879BF21084001906846037921220E
:103C600004212846FFF712F97CBD7CB506461C46A8
:103C700000250520012911D004290ED100920190C0
:103C8000E0232E223046FFF749FC1F232E22042179
:103C9000304601950094FFF741FC7CBD00920190F5
:103CA000E0232E2201213046FFF738FC1F232E226D
:103CB0000121304601950094FFF730FC7CBD08B52A
:103CC0000322012907D0042904D1009205232E22C2
:103CD000FFF742FC08BD009205232E220121FFF7C9
:103CE0003BFC08BD08B50522012907D0042904D1F1
:103CF000009200232E22FFF72FFC08BD0092002324
:103D00002E220121FFF728FC08BD10B5012905D09E
:103D1000042902D12F22FFF7BDFBB8E42F22012195
:103D2000FFF7B8FBB3E40000000020410000EE42C2
:103D300000006E43000080BF000048420000EE43D8
:103D400000006E4466666E4100006E420000203F37
:103D50000000A03F000020400000A0400000A04163
:103D6000000020420000A0420000E0400000484166
:103D70000000C84170B5064601F012F905683046EA
:103D80000B30C408E400B44201D8002070BD68685C
:103D90002A46002818D00168A14211D30B462146BB
:103DA00008318B4208D3436801194B6003681B1B21
:103DB0000B605160046001E041685160001D70BDFE
:103DC000024640680028E6D12146284601F0F4F872
:103DD0000028DCD170BD70B50446051F01F0E0F885
:103DE0000068002C1AD0446801E020466468002C6A
:103DF00001D0AC42F9D301680A18AA4204D12A685A
:103E000005468918016000E0456028684119A14213
:103E100005D16168696021684018286070BD6C60D8
:103E200070BD00000FB41CB5074B06AA7B44694661
:103E30000090059801F073FB0020694601F082FBB9
:103E40001CBC08BC04B0184715170000F8B50E4696
:103E50000446002020622046E1688847002829D0D7
:103E6000252802D06268A16820E0E168204600278A
:103E7000884705001ED028464138192802D8012756
:103E8000FF0220353246204627602946FCF748F9D4
:103E9000002808D0012804D0F61DF608F6000836E0
:103EA000D9E7361DD7E762682846A1689047206A9F
:103EB000401CCFE7206AF8BD70B50C460546012AC4
:103EC00005D02878800600D5EA69002302E00123A6
:103ED00005E05B1C934202D2E05C0028F9D1A8699E
:103EE000E618C01AA861286AC01828622846C04689
:103EF000C04604E06A682078A968641C9047B44210
:103F0000F8D32846C046C04670BD0000F7B500256E
:103F100075291068009914A611D0C046C046002823
:103F200002DA404211A608E0009909688A0701D523
:103F30000FA602E0490704D50EA6012501E0C04600
:103F4000C046009F0024243704E001F017FB303105
:103F50003955641C0028F8D12B463246214600987A
:103F600001F073F8FEBD0000000000002D0000000D
:103F70002B0000002000000070B504460D462146CD
:103F80001068C046C0462188090502D50F4A7A4408
:103F900002E00E4A7A440E3223460021243305E023
:103FA00006070009360F965D5E54491C0028F7D1BC
:103FB00020780023000705D5702D03D0002901D0FB
:103FC00002231132204601F040F870BD6A22000041
:103FD000034670B502460B439B070FD10E4CE6011A
:103FE00000E008C208C91D1B9D433542F9D0D9B273
:103FF0001170521C00290DD01B0AF8E70B78491CE0
:104000001370521C002B05D00B78491C1370521CE6
:10401000002BF3D170BD0000010101010022030952
:104020008B422CD3030A8B4211D300239C464EE0D3
:1040300003460B433CD4002243088B4231D303098F
:104040008B421CD3030A8B4201D394463FE0C30941
:104050008B4201D3CB01C01A524183098B4201D359
:104060008B01C01A524143098B4201D34B01C01A44
:10407000524103098B4201D30B01C01A5241C308BC
:104080008B4201D3CB00C01A524183088B4201D32B
:104090008B00C01A524143088B4201D34B00C01A17
:1040A0005241411A00D201465241104670475DE02C
:1040B000CA0F00D04942031000D3404253400022AF
:1040C0009C4603098B422DD3030A8B4212D3FC2258
:1040D000890112BA030A8B420CD3890192118B42D7
:1040E00008D3890192118B4204D389013AD09211ED
:1040F00000E08909C3098B4201D3CB01C01A5241A8
:1041000083098B4201D38B01C01A524143098B4270
:1041100001D34B01C01A524103098B4201D30B0159
:10412000C01A5241C3088B4201D3CB00C01A52417E
:1041300083088B4201D38B00C01A5241D9D2430865
:104140008B4201D34B00C01A5241411A00D20146A2
:10415000634652415B10104601D34042002B00D50C
:104160004942704763465B1000D3404201B50020CE
:10417000C046C04602BD7047704770470246C80F30
:10418000C00781434B0030B54B405B009B0D20D0F6
:104190001923DB06C91801231B05994220DB0324E0
:1041A000A40704251346AB400BD3002B04D1EB0628
:1041B00013409B00E34204D4012464070023121936
:1041C0005941FF231B0599420BD2C9000143500FEF
:1041D00009E0CB0204D501430803024305D005489A
:1041E00030BDFF21C905084330BD08460721090538
:1041F000884330BD0000C07FF0B50C46871A9C4153
:104200000D46861A9D4103D2C01BA141D2196341BC
:104210000D0D1F0DC94EEC1BAE435CD07F057F0D0D
:104220000026002F51D02D05AC46A943DD02012305
:10423000ED0A1B051D4320231B1B24D41746E74012
:10424000381871412F46E740CC199D402818314657
:1042500061410C0D27D161449A4013D50023401CC5
:10426000594152000ED14008400001224B00520536
:10427000D34207D305204007C14201D5B04900E031
:10428000B0493046F0BD6B00002A00D001229A18D8
:104290001F23203C1B1B01D5002302E0E54028180A
:1042A00071410C0DD7D0012424050919C407CD078D
:1042B00040084908E40F28436144002CD5D000246D
:1042C000401C61419A40D0D1CDE76A05520DD9D149
:1042D000C90FC907D5E79C4D4E00002801D0012425
:1042E00000E0002434195F00002A01D0012600E01C
:1042F0000026BE19954FAC420CD8AE420AD8B44243
:1043000006D001256D05EC42BCD010461946F0BD23
:104310009942FCD000203946F0BDF0B51FB40C46E0
:104320000F46811A9F412546861A9D4106D20125D6
:10433000ED076F40401ABC4152187B41210D1E0D04
:104340008D1BAC467D4D8D437ED075056D0D7CD0AB
:104350000D05AE46AC431B031B0B794D52429D41EC
:10436000202366469B1B14D31746F74038180026B7
:104370000090744160462F460741E41900989D4023
:104380002818664116D4714671189A4025D5012324
:1043900020E093182A466A415200002B00D0521C9C
:1043A0001E23203E9B1B002B61DD3541EE17281894
:1043B0006641E8D5001876415B1C9A4000D3401C4A
:1043C0004B05F3181524E34010D3002B52D071464F
:1043D0007118D30FC01802D3491C05B0F0BD0123DA
:1043E000DB079A42F9D140084000F6E70122520566
:1043F000B21801D1002853D00123CC0ADB02994323
:10440000891E002A08D1020C03D0020C00041039C6
:1044100002E00246002020390023550B05D112028C
:104420000823550B01D152010D23550C01D1120166
:104430001B1DD50C01D192009B1C150D01D1520002
:104440005B1C2025EE1A01E02CE022E00546F54039
:1044500015439840CA1AE10769181305C918002ABC
:10446000BBDA032040070818C10FC9070FE07146E7
:104470006118B2E7F10740080843711071444A001F
:104480000CD001235B059A42A7D2C90FC9070020AF
:10449000A3E74905490D26D1002001E00028F4D109
:1044A00000219AE7284D6600002801D0012100E094
:1044B000002171185F00002A01D0012600E00026CB
:1044C000BE19224FA94210D8AE420ED8B14208D030
:1044D00001256D05E94206D01946A8024140104663
:1044E0007BE79C4201D0214677E70020394674E7FC
:1044F00010B50C465C4005D50124E4076340FFF786
:104500000CFF10BDFFF778FE10BD30B40C465C40C8
:1045100004D50124E407634030BC6DE630BCFCE602
:1045200070B50124E40761400D465D4002D4FFF7F9
:1045300063FE70BD6340FFF7F0FE70BDFF07000033
:104540000000F0FF0000F07F0000E0FF0000F87FB7
:10455000F0B5F94D0C091E092C402E402F468BB0AA
:10456000A7437DD0B543FCD0002E7AD0002CFCD0E0
:104570000D465D40ED0F2543AC1BFF25AD046419CE
:104580000894C502440DC9022143500DDC020443C6
:104590000120C00701430443D2020191200C110CF9
:1045A00000958C46010423468B430A916146090419
:1045B000E24D8A430991010A7D44491980390978FD
:1045C00005464D4301266D18F605751B6943C90C58
:1045D000640B891C4C436418B5012C1B250C2E045C
:1045E000B4434C434D43210C691889090591009D42
:1045F000E90701D00121C90704912C4601996708F8
:10460000CD072F434C08059DE10B4D432D0C29464A
:104610006646754302950D4645432E46029D7D1B19
:10462000B44100950D465D4301942C0C2F040D46BA
:104630005543AE462D0C3D43029503947546049CAC
:104640002D04641B049406D2029C039D641C002666
:1046500075410395029401AC70CC009F7D1B01E075
:104660003EE162E1B4410904009507910194059986
:10467000A4086143090C0C464443650BE7040C464F
:1046800066467443A646640B3C4303950294744605
:10469000049DE4042C1B049406D2029C039D641C1C
:1046A000002675410395029401AC70CC009F7D1BE0
:1046B000B44101940C465C430095650FE7000C463D
:1046C0005443A646640F3C43039502947446049DEC
:1046D000E4002C1B049406D2029C039D641C00265B
:1046E00075410395029401AC70CC009F7D1BB441D1
:1046F000AE09AF06049DC900AD092F43049DA40671
:10470000AD060495079D344369180791059DE10B9B
:104710004D432D0C29466646754302950D4645438B
:104720002E46029D7D1BB44100950D465D430194CC
:104730002C0C2F040D465543AE462D0C3D430295DF
:1047400003947546049C2D04641B049406D2029CB9
:10475000039D641C002675410395029401AC70CC46
:10476000009F7D1BB44101948C050694079C890A27
:10477000611800950791019C0599A4086143090CF3
:104780000D464543680BEF040D46644665436C0BCC
:104790003C43049FED047D1BAC4602D20025641C03
:1047A0006841009E019D371B85410846584301958D
:1047B0000C46460FC5005443600F28436546E4008D
:1047C0002C1B02D20025401C6E41019D3F1AB541B1
:1047D0002846BD09800628438446A009BF064E022C
:1047E0000699A40676180743079D002068410A9998
:1047F000079019430020099B00906046FF1913435E
:104800004041E20F64003A43A4460446D71A8C4163
:10481000A04203D90120009020463A46C70F9418C1
:1048200040416246D20F2243644664000494009CD7
:10483000BE466400D71AA446044602978C417746C8
:10484000002F01D1A04204D96046401C8446029A40
:104850002046C40FA64694184041049A0546D20F3C
:10486000224364466400D31A8D417146002901D168
:10487000A84202D928461A46641C10430122002887
:1048800000D0164361020020079B891904465C4151
:104890000223002C02DB491813466441089DCE0A0E
:1048A0002D145D194B056705E10A2C050D190899B2
:1048B0003E43C9076940002B08D0934006D300222D
:1048C000761C5141002B01D1760876001C4A002D40
:1048D00043DB154241D0AA433FD030460BB0F0BD78
:1048E00006180D464D41174C7642AC411AD3951827
:1048F0001C465C41134A6D42A24113D3012252056A
:104900004C00D4420AD15C00D4420BD04B4002D5BB
:1049100092021143E2E749004908DFE75940C90F15
:10492000C90718E000200849D8E7054801420DD121
:104930000342F7D0F2E700000000FF07681C000008
:104940000000F07F0000E0FF0000F87F11485940B0
:104950000143C01241400020C0E70123089A9B0692
:104960009A4205DC032252078918C90FC907B5E727
:10497000052252078918074A1143D2125140ADE768
:1049800070B515461C4602460B4628462146FFF7E1
:10499000DFFD70BDFFFFFF7F1F22030C02D10F223E
:1049A000000402D0030E03D004E00020014670474B
:1049B0000002083A030F01D10001121F830F01D139
:1049C0008000921E002801DB4000521E1205511883
:1049D0004205C012411810467047C10FC90700D0E8
:1049E0004042012292071143D6E701218907D3E70C
:1049F000F0B58B4C0F09254689B0BD437BD01D090E
:104A00002646AE43FAD00E465E402740F60F3E43A0
:104A1000254071D024012142FBD0FF24AD19A4040C
:104A20002D1B039501252D05DB02DB0AC9022B4353
:104A3000C90A29431E010901040F130F050121436F
:104A40001701880B820391432D098C46A90B1E4345
:104A50008A039543B30B9A0396433F09BA0B940319
:104A6000A74302962E467E430497B6464E19D719A1
:104A70000C460196544305977E43371B7646BF1B71
:104A80003601B646BE0B361900967646BC04371979
:104A9000009C01D3641C00946400002F01D0012607
:104AA0003443029E049F754366467E430496760017
:104AB00034196E0034190094029C019E1C1966433F
:104AC000751BAE46069465464519059C05956C43D5
:104AD000594375460891691A0191049E0146514354
:104AE000A41B0491611A009C0791E10605D061099D
:104AF0000122114302E072E06EE06109089D002787
:104B00002C0A2D066918049D7C412A0A2D06691875
:104B1000019D6241AC0DAD026D185441079A910D93
:104B2000920255196141029A644658435443069BC8
:104B3000059A5A43121A131B9A0E9B015B187A416D
:104B4000010B0005C3185141220A200644195A419D
:104B50009A4200D2491C01204002814203D315230E
:104B60000226F64302E014230326F6432020C51A4A
:104B7000A9401746AF40DA400A4320460399D8407F
:104B80000914731819055118039A3843D207514074
:104B9000AC4009D00122944006D30022401C514170
:104BA000002C01D1400840001E4A934212D301223A
:104BB00003989206904207DB0520400709181A481F
:104BC0000143C012414004E0032040070818C10F10
:104BD000C907002009B0F0BD0020F107FAE7051869
:104BE0000C464C4111486D42A04115D394181A4609
:104BF0005A410E48644290410ED301204A004005BC
:104C0000824209D35A00824206D35940C90F084A4A
:104C1000C90700201143DDE700200649DAE700005C
:104C20000000FF07FE070000FFFFFF7F0000E0FF1E
:104C30000000F07F0000F87F70B505464800440D85
:104C4000124B0020002C0AD0634008D09A4206DAAA
:104C50006642B24203DD12054019514170BD002C7D
:104C600008D0002B09D0C90FC907002AF6DB084A73
:104C7000114370BDC90FC90770BD28460A03104310
:104C800002D00020034970BD284670BDFF07000018
:104C90000000F07F0000F87F0121C90501234118C1
:104CA00042001B06D3185B0E0AD0C1100722D206A1
:104CB000891840075242D14201D5520089187047E5
:104CC000090208D50146002A03D0C10FC9070020F8
:104CD000704710467047420202D0002002497047D8
:104CE000072109050143F4E70000F87FF0B5FF252F
:104CF0002D04C609C209FF2704462E400137CB09FF
:104D00003E4348402A402B400746002A6BD0002BE8
:104D100069D0AA4267D0AB4265D0002800DA32469B
:104D20000125ED0529432C4309022002090AD21A64
:104D30004B0C7F24E31A434C000A7C44E35C7D2443
:104D40002404121914145B00A218884201D3521CC7
:104D500000E0400049420C465C4324115C43DB0107
:104D60006415E318040A5C43C502200D0C46444355
:104D70006419250A5D432303EC0C0D4665430003CB
:104D80000019EB184C42A34201D35B18401CD40518
:104D90002018002B07D05B00C91804D3401C002941
:104DA00001D1400840003F2189048A4209D3002AEA
:104DB00008DC1106090F04D0032149074018C00F71
:104DC000C007F0BD01224100120689187F22520659
:104DD0009142F6D205214907C84201D59010F0BD95
:104DE000FF20C005F0BD002F00DA32461648AA4267
:104DF00007D2AB4205D21902090E17D0F80FC0072F
:104E0000F0BDFF2563002D06AB42F9D84900A94249
:104E1000F6D8AB4201D1A942F2D0A94201D100217A
:104E200001E061004908D0050843F0BD1102090EF8
:104E3000FBD0FF200243D005F0BD0A4601461046D4
:104E400054E70000661500000000C07F0102C21593
:104E500004D00123DB071943002A0ADB9E239A1A98
:104E600002D40846D0407047FF224100120691420A
:104E700001D900207047C017C04370471F22030CA0
:104E800002D10F2200041CD0030E01D10002083A07
:104E9000030F01D10001121F830F01D18000921E68
:104EA000002801DB4000521ED20551180212511891
:104EB0001922904004D3491C002801D14908490017
:104EC00008467047C10FC90700D04042012292072F
:104ED0001143D3E701218907D0E710B50346080045
:104EE00001D0202001E0190002D00C0C02D003E018
:104EF000084610BD090410380C0E01D1090208380B
:104F00000C0F01D10901001F8C0F01D18900801EF7
:104F1000002901DB4900401E1C46C4402143C40552
:104F2000A2182024241A080A801819229140E0D3DC
:104F3000A3400B43401C002BDBD14008400010BDB8
:104F4000CA0FD20703D00B460021404299419D234E
:104F5000DB051A43C1E79D22D205BEE710B5FF224B
:104F6000C30D134009D05A4007D0914205DA5C4284
:104F7000A14202DDC905081810BDC40FE407002BCB
:104F800006D0002A06D0002902DBFF20C00504431A
:104F9000204610BD4102FCD0004810BD0000C07F7B
:104FA0000048704754060020004870476C060020F7
:104FB000704770477047704738B504460A4600206E
:104FC0006946C046C046002805D0024620460099E2
:104FD00000F0ECFA012038BD10B5012000F0AEFE63
:104FE00010BDF8B5C046C046054600200C4610204E
:104FF000C0460646A819A0420DD93246694600208F
:10500000C046C046070001D100F098FE0098A042BB
:1050100000D00546C419FFF7C3FFF61D074605601B
:10502000F008C0004619284600F008F8B44204D041
:1050300031463868A21B00F0B9FAF8BD00210160C2
:1050400041608060704710207047FFB504460D46F0
:1050500081B0243000902168880604D51022E069D0
:105060009143216000E00120A84201DD471B00E0E0
:1050700000270498A1697A191018081AA0612078ED
:10508000C00602D42046C046C046002608E0039869
:105090006268A168805D9047206A401C761C20628F
:1050A00004988642F3DB2078C0060AD52046C04625
:1050B000C04606E06268A16830209047206A401C24
:1050C000206238467F1E0028F4DC07E00098626802
:1050D000A168405D9047206A401C206228466D1EF2
:1050E0000028F3DC2046C046C0462078000602D5E2
:1050F000022005B0F0BD0120FBE700007047FFB5BE
:105100000C461E468FB003CA089009914F007D0DD2
:1051100000D16D1E002108460020C0460321099AD7
:1051200089050840002A03DA8200801840080840F8
:10513000800D01280A9002DD0020C0430A900898E3
:1051400007430DD0F048F149281848430714189830
:1051500000281DD07542291E1DDD0A9842421BE021
:105160001898012802D00020302104E00020F243EA
:1051700005E02154401CB042FBDB30460022189B66
:10518000002121540F998B600A60486013B0F0BD74
:10519000BD1B6D1CDFE70A9A002900DA69420BA8E3
:1051A00000F0A0FA0BAB07CB03AB07C30899099833
:1051B00000F004FB6B4607C30146D5480918002DD3
:1051C00000910BDDD24903980A9A49424018002306
:1051D00003A90390684600F061FD08E003990A9A6C
:1051E0000023081803A90390684600F001FD6B46F0
:1051F00007C30004000C03D00020C043410800E0B6
:105200001046189A002A03D00022009215461EE08C
:10521000751E05D400F0E4F9303262556D1EF9D5E3
:1052200001220843079602D000227F1C04E0207868
:10523000302801D100227F1E002A069787D01EE069
:10524000112D07DA00F0CCF9303262556D1C0246A0
:105250000A43F5D1084303D00098002819D00EE086
:105260000021681E05E0235C625C63542254401EEA
:10527000491C8142F7DBA81B401E07950690079A40
:1052800018990020A0540F98079B069A81600CC0C3
:105290007CE711260020189059E7D21DF0B50D4685
:1052A0000446D10893B0C90003C90C900D9100F0D9
:1052B0005BFE02460D98C00F01D02D2007E020684C
:1052C000810701D52B2002E04007C00F4001032ACF
:1052D0000F9001D0072A05DB03462946204600F03F
:1052E000BDF90EE12078800601D5E76900E00627C8
:1052F0002846652D04D0662814D0672D69D12DE08D
:105300000020112F009001DB112300E07B1C0CAA70
:1053100003A910A8FFF7F3FE1199002610987D1C31
:105320000E9142E001203B460CAAC0070B900120E1
:10533000009003A910A8FFF7E2FE119D12981099A2
:10534000002600280E9501D1781C0D18781B02D478
:1053500046427D1C761EE81B00903AE0012F00DAE1
:1053600001270020112F009001DD112300E03B46B2
:105370000CAA03A910A8FFF7C2FE11993D46109888
:1053800000260E91217809070BD40E99A94200DA64
:105390000D4603A9012D04DD4A19203AD27F302A97
:1053A00006D0B84201DA011D04DA012100910FE0B4
:1053B0006D1EEFE7002802DC86192D1A03E0411C60
:1053C000A94200DD0D46801B401C00900120C00753
:1053D0000B902078000705D40098A84202DB00203B
:1053E000C043009069460020C8720B98012102AFAB
:1053F0000337C907884225D0022010902B20119036
:105400000B9800280BDA40420B902D20119006E0FB
:105410000B9800F0B3F830317F1E0B903970109963
:10542000481E00291090F3DC0B980028F0D1119849
:105430007F1E38702088000501D5452000E06520DA
:105440007F1E387001A8C01BC01D0B900F9800284C
:1054500000D0012041190098C01709180B980818AE
:10546000A169081A401EA0612078C00602D4204617
:10547000C046C0460F98002805D06268A1689047D2
:10548000206A401C20622078C00625D52046C046F0
:10549000C04621E0002E07DB0E98B04204DD03A8D1
:1054A0006268805DA16802E06268A1683020904770
:1054B000206A761C401C20620098401E0028009044
:1054C0000AD1FFF771FDC06862680168405CA1689D
:1054D0009047206A401C206228466D1E0028D9DCB7
:1054E00007E062683878A1687F1C9047206A401CFA
:1054F00020620B99481E00290B90F2DC2046C04622
:10550000C046032042E6000001FCFFFF104D0000F2
:10551000E1DFFFFF01694A1C02610878704700B5AE
:105520008FB00291002105910549019379440391BF
:10553000114604906846FEF789FC0FB000BD0000DC
:10554000E5FFFFFF0A681070521C0A60704710B533
:105550004369002B02D0C046C04601E0FEF7ACFC18
:10556000012010BD1278014624310A7000224A70D1
:105570000122ECE711680022D243E8E701468008E7
:10558000081A02091018020A1018020C1018C00894
:10559000820012185200891A01E0401C0A390A29B7
:1055A000FBD27047004870474C06002010B50346F8
:1055B000406801E003464068002801D08842F9D3E2
:1055C0001868C3188B4206D0CB1CD808C000001D39
:1055D000411A521A0146081D0A60FEF7FCFB10BD75
:1055E0000B4670B5024689078008084319469D0896
:1055F000141AA94125090807054308092C1948412F
:10560000250A01060D43010A2C194141200C0D0405
:1056100028430D0C00194D41002140194D41C0088F
:1056200069070843E908840F8D0025438400241886
:105630004D4124196D41121BAB4107E00925ED4393
:105640002C11521963410024401C61411C460A255B
:105650000026551BB441F1D270BD0000F8B51F46BD
:10566000044601230068DB02032601461840072A8E
:1056700005DB002801D017A506E017A504E00028E7
:1056800001D016A500E016A5102081432160A06975
:10569000C01E002FA06101D0401EA0612046C04660
:1056A000C046002F09D038466268A1689047206A3A
:1056B000401C2062C01C206206E0206AFAE7626893
:1056C0002878A1686D1C9047761EF8D22046C04607
:1056D000C046F8BD4E414E006E616E00494E460018
:1056E000696E6600F7B516468AB0334878446C4652
:1056F00003467C33C06F5A689B680DC42E487844BB
:10570000763003AC0DC80DC43720C001081837210E
:105710001B30FEF78DFC05460C46803D1B3C02D538
:105720006442012000E000200027099010E0E0071B
:105730000CD00C2020497843794432464C3941182A
:105740006846012300F054FA6B4607C364107F1CBF
:10575000002CECD1184F7F442E3F16E0E80712D002
:105760002001C0190EC80691089307920068F04204
:1057700001D1981908903246012306A903A800F028
:1057800037FA03AB07C36D10641C002DE6D10998EE
:10579000002806D032466946012303A800F07EFAAD
:1057A00005E001233246694603A800F021FA0A9B6E
:1057B00007C30DB0F0BD0000F40B0000034640002D
:1057C0000A4610B5400D0BD00121C9070F24A402D1
:1057D00000191C0364082143540D2143D20207E041
:1057E00000210120F2E7D40F490021435200401E5E
:1057F0000029F8DADB0FDB07184310BDFFB50D46B3
:10580000144685B04868516800F089FB009101900A
:10581000A868A16800F083FB02910390A868616802
:1058200000F07DFB029A12188242029201D20120FE
:1058300000E00020019A0B18D2180028019202D033
:105840008A4202D903E08A4201D2012000E000200E
:105850000099081800906868A16800F060FB029A3F
:1058600012188242029201D2012000E00020019A27
:105870000B18D2180028019202D08A4202D903E004
:105880008A4201D2012000E000200099081800900F
:105890002868216840004900400849084018FA4932
:1058A000471814E001994000C90F0843009001987F
:1058B00002994000C90F08430190029803994000E3
:1058C000C90F08430290039840007F1E0390009880
:1058D0000028E7DA0898002801D0EC4E00E0002606
:1058E000B74201DA012000E00020002804902AD00D
:1058F000F71BF806C00E15D0029B2021091A039A47
:105900008B401A430392029A019BC2408B401A4378
:105910000292019A009BC2408B4000991A43019267
:10592000C14000917B110DD06F460320C11A03D5F1
:1059300000218200B95003E08A008100BA587A50F1
:10594000401EF3D5374603980299002800D0012065
:10595000014308980291002808460CD0002800D086
:1059600001200199019A490508430121D20AC9027F
:10597000D202019200E001210E9B0122D207012BED
:1059800002D0002B03D013E0002807D120E0904282
:1059900004D890420CD1019B0B4209D0019B5918AD
:1059A000019105D10099491C009101D17F1C009201
:1059B00000280DD0102108460020C0460498002879
:1059C00006D00F98002803D0082108460020C046C2
:1059D00028682168019B009A4840C10F0598C907B3
:1059E00039430EC009B0F0BDFFB587B0099A0898D9
:1059F0000899536892684068896896460022039324
:105A000017469446089A12685300099A5B08126870
:105A1000520052089A1A9E4BD4180A9A002A01D0B2
:105A2000352200E04022069200220123154604920E
:105A3000DB07059324E0002D05D175460346039E40
:105A40004D1BB34109D375466646039B491B049D14
:105A50009841059B7519AC465F4163463B4308D0AE
:105A6000059B049EDD0776082E435B08049605938C
:105A700001E0521E641EC50FED0749184041521C3B
:105A8000069B9A42D7DB002D04D17546039A6B1A08
:105A9000824101D203200CE0039A0B466B40424046
:105AA000134303D0014303D0012002E0022000E0B1
:105AB0000020614601910021009702910A99002976
:105AC00005D0614640020143704B019102E080071E
:105AD000002302909C4201DA012000E00020070030
